:020000040800F2
:10000000180E0020290200082F4600082D30000895
:100010002D4600085D0A0008015500080000000098
:10002000000000000000000000000000754B000808
:10003000350B00080000000041470008774B00081E
:10004000430200084302000843020008430200087C
:10005000430200084302000843020008430200086C
:10006000430200084302000843020008610A000836
:10007000430200084302000843020008430200084C
:100080006D0A0008790A00084302000843020008CC
:10009000430200084302000843020008430200082C
:1000A000430200084302000843020008430200081C
:1000B0004302000843020008430200083D300008E4
:1000C00031300008430200084302000843020008E0
:1000D0004302000889540008C55400084302000880
:1000E000430200084302000843020008254C0008B0
:1000F00043020008430200084302000843020008CC
:1001000043020008430200084302000843020008BB
:1001100043020008430200084302000843020008AB
:100120004302000843020008850A00084302000851
:100130004302000800000000000000004302000825
:10014000430200084302000843020008430200087B
:10015000430200084302000843020008430200086B
:10016000430200084302000843020008430200085B
:1001700043020008430200080000000000000000E5
:10018000430200084302000800F002F800F03CF8C7
:100190000AA090E8000C82448344AAF10107DA45E2
:1001A00001D100F031F8AFF2090EBAE80F0013F0F8
:1001B000010F18BFFB1A43F001031847E85D000068
:1001C000085E0000103A24BF78C878C1FAD85207F8
:1001D00024BF30C830C144BF04680C6070470000C1
:1001E0000023002400250026103A28BF78C1FBD840
:1001F000520728BF30C148BF0B6070471FB505F0DC
:10020000B3FE1FBD10B510BD00F0CFF81146FFF7CB
:10021000F5FF05F097FB00F0EDF803B4FFF7F2FFF0
:1002200003BC00F0F5F80000094880470948004782
:10023000FEE7FEE7FEE7FEE7FEE7FEE7FEE7FEE796
:10024000FEE7FEE704480549054A064B70470000F3
:10025000154C00088901000818080020180E00201D
:10026000180A0020180A002053EA020C00F06980E6
:100270002DE9F04B4FF00006002B1FBFB3FA83F5BA
:1002800003FA05F424FA05F65E4012BF1643B2FAEB
:1002900082F502FA05F4C5F120051EBF22FA05FC1D
:1002A00044EA0C04203556EA044C4FEA144418BFC3
:1002B000641C4FF000084FF00009904271EB030CF2
:1002C00039D3002919BFB1FA81F701FA07F6B0FA5C
:1002D00080F700FA07F6C7F120071EBF20FA07FCD7
:1002E00046EA0C062037B6FBF4FCA7EB0507103FE7
:1002F00007F01F0BCBF120060CFA0BFB2CFA06F6CD
:1003000044BFB3460026202FA4BF5E464FF0000B2B
:100310005BEA060C08BF4FF0010B19EB0B09ABFBB6
:10032000027C48EB0608C01B06FB02CC0BFB03CC8F
:1003300071EB0C01C1E70B46024641464846BDE859
:10034000F08B13B54FF000004FF00001AFF30080C9
:10035000BDE81C4070474FF0000200B513469446BC
:100360009646203922BFA0E80C50A0E80C50B1F10D
:100370002001BFF4F7AF090728BFA0E80C5048BF21
:100380000CC05DF804EB890028BF40F8042B08BFBF
:10039000704748BF20F8022B11F0804F18BF00F8BB
:1003A000012B7047704770477047754600F02CF876
:1003B000AE4605006946534620F00700854618B052
:1003C00020B5FFF73FFFBDE820404FF000064FF09B
:1003D00000074FF000084FF0000B21F00701AC467A
:1003E000ACE8C009ACE8C009ACE8C009ACE8C00999
:1003F0008D46704710B50446AFF300802046BDE837
:100400001040FFF70ABF000000487047B407002003
:1004100001491820ABBEFEE726000200704700002D
:1004200010B52DED048B03F0DFFE404801F0D0FF46
:10043000DFED3F8A9FED3F9ADFED3F9A9FED3F8AC8
:10044000B0EE682AF0EE491AB0EE691AF0EE480AEA
:10045000B2EE000A3A4804F043F9B0EE682AF0EE32
:10046000491AB0EE691ADFED370AB3EE040A3648CE
:1004700004F036F9B0EE682AF0EE491AB0EE691AC7
:10048000F0EE480AB2EE000A304804F029F9B0EE66
:10049000682AF0EE491AB0EE691AF0EE480AB2EE98
:1004A000000A2B4804F01CF9B0EE481AF0EE480A96
:1004B000B0EE480A274800F05FFA05F055F8002131
:1004C000254802F0DBF90421234802F0D7F908217E
:1004D000214802F0D3F90C211F4802F0CFF9002186
:1004E0001E4802F0CBF904211C4802F0C7F908218C
:1004F0001A4802F0C3F90C21184802F0BFF9164956
:1005000040F2DC500A6850630A6890630A68D0635E
:100510000968086411490A6850630A6890630A68A8
:10052000D06309680864BDEC048B10BDB4010020E1
:10053000000096C300009643CDCCCC3D00000000E7
:100540006C0400200AD7233C2C050020AC040020BA
:10055000EC0400206C050020240100206C01002028
:100560002DE9F041F6482DED048B01F038FBF54CF8
:10057000F54E01252570D6ED090ADFEDF48AF44821
:10058000B0EE680A04F054F8D6ED0A0AB0EE680A34
:10059000F04804F04DF8D6ED000AB0EE680AEE48D7
:1005A00004F046F8002626706570EC49EC4804F02B
:1005B000C9F8667003F05CFE03F0C0FD206290EDA8
:1005C000029AE648417980790844052801D901203A
:1005D00000E00020E178E34E01B118B1E07000289E
:1005E0007ED11BE0B5EEC09A84ED069AF1EE10FACA
:1005F00001D2C4ED068AC6ED038AC6ED048AC6EDB3
:10060000058AC6ED068AC6ED0A8AC6ED0B8AC6EDD6
:100610000C8AC6ED0D8AA570E07002E0A078002873
:100620005ED0F0EE490A94ED060ACE4804F000F8D8
:10063000C848D4ED030AD6ED0D1AD0ED0D2AC648F0
:10064000C94E20EEE21A90ED0D0AC14806F12005D0
:1006500031EE404A94ED051A01EE614A86ED004AFA
:10066000D0ED0D3A94ED023ABD4823EE632A32EE06
:10067000402A01EE612A86ED012A23EE632A32EE3A
:10068000402A01EE212A86ED022A20EEE22A32EEED
:10069000402A01EE212A86ED032AB0EE402A03EE1D
:1006A000632AB0EE423A01EE212A01EE613A86ED6C
:1006B000043A86ED052AB0EE402A00EEE20A10EE7A
:1006C000A22A01EE610A01EE612A86ED062A86ED74
:1006D000070AD0ED000A94ED040A60EE801A00E0EB
:1006E0003EE0C5ED001AD0ED010AB7EE008A60EEDB
:1006F000800AC5ED010AD0ED020A60EE800AC5ED60
:10070000020AD0ED030A60EE800AC5ED030AD0EDBF
:10071000040A60EE800AC5ED040AD0ED050A60EE19
:10072000800AC5ED050AD0ED060A60EE800AC5ED27
:10073000060AD0ED070A002020EE800A85ED070AA0
:1007400094ED010A06EB800191ED001AF0EEC10A6A
:10075000F4EEC00AF1EE10FA05DBB0EE688A36E07E
:10076000C6ED0D8A64E7B5EEC01AF1EE10FA08DBAB
:1007700005EB800191ED002AB5EEC02AF1EE10FAEA
:100780000DDCB5EEC01AF1EE10FA20D805EB8001B1
:1007900091ED001AB5EEC01AF1EE10FA17D205EB82
:1007A000800191ED001AB0EEC11A31EE202AB4EEAC
:1007B000C02AF1EE10FA0ADD30EE602AC2EE010A1C
:1007C000F4EEC80AF1EE10FA01D2B0EE608A401CD5
:1007D0000828B7DB9FED650A40F24C4440F26C7785
:1007E00074EE000A2246394648EE210AFCEEE00A81
:1007F00010EE900A80B204F0AEFE5B4B224640330E
:1008000039461880D6ED010A95ED011A70EE800A7E
:1008100048EE010AFCEEE00A10EE900A80B204F005
:100820009AFE5880D6ED020A95ED021A224670EE25
:10083000800A394648EE010AFCEEE00A10EE900A02
:1008400080B204F088FE9880D6ED030A95ED031A75
:10085000224670EE800A394648EE010AFCEEE00AB4
:1008600010EE900A80B204F076FED880D6ED040A2D
:1008700095ED041A224670EE800A394648EE010AC8
:10088000FCEEE00A10EE900A80B204F064FE1881DB
:10089000D6ED050A95ED051A224670EE800A394616
:1008A00048EE010AFCEEE00A10EE900A80B204F075
:1008B00052FE5881D6ED060A95ED061A224670EED4
:1008C000800A394648EE010AFCEEE00A10EE900A72
:1008D00080B204F040FE9881D6ED070A22463946E0
:1008E00030EE800AD5ED070A08EE200ABCEEC00AF9
:1008F00010EE100A80B204F02EFE1D49D8811A882D
:100900000C6862630C685A88A2630C689A88E26378
:100910000968DA880A6417491A890C6862630C68E6
:100920005A89A2639A890B68DA6309680864B0EE91
:10093000490ABDEC048BBDE8F04104F0E7BA0000C1
:10094000180100202C0000206C0500200000000091
:10095000AC040020EC0400206C0400200C070020F4
:10096000EC0600202C050020380700200000BA44C7
:10097000240100206C010020DFED0C1AC0ED001AEC
:10098000C0ED011AC0ED021AC0ED031AC0ED041A41
:10099000C0ED051A80ED061A80ED070AC0ED080AC1
:1009A000C0ED091AC0ED0A1A7047000000000000EF
:1009B00000B590ED000AD0ED060A024630EE600A5E
:1009C00000F034F892ED010AD2ED070A30EE600A29
:1009D00000F02CF8F0EE401A92ED020AD2ED080A6F
:1009E00030EE600A00F022F8B0EE401ADFED0E0A99
:1009F000B0EE610A11EE200A82ED090AB1EE610A39
:100A000001EE600A82ED0A0A92ED040A92ED051ADF
:100A1000F0EE401A01EE600A41EE201AC2ED0B1A08
:100A200082ED0C0A00BD00003BCD133F10EE100A12
:100A30000749DFED080A884202DD30EE600A7047A0
:100A400010EE100A04498842F9D330EE200A7047AC
:100A5000000034430000B443000034C3FEE700004C
:100A6000014800F0CBB80000B8000020014800F0B9
:100A7000C5B80000EC020020014800F0BFB800003B
:100A80004C030020014800F0B9B800008C0200209F
:100A900001681823CAB2103AB2FBF3F2054B6FF3A8
:100AA0000901032A9B5CC36500D9091D81650846BD
:100AB00070470000725F000810B5014600208B6986
:100AC0008A6A4FF0C07453B1B3F5005F15D072B1AC
:100AD000012A0CD0022A0AD0032A09D104E01AB153
:100AE000012A06D0022A03D1C96AC90100D5012012
:100AF00010BDC96AA142FAD010BD002AF7D0012A60
:100B0000F2D0022AF3D0032AF3D010BD30B5046826
:100B1000256825F480252560046863608368402B80
:100B2000036803D099600068C26030BD9A600068B5
:100B3000C16030BD704772B6FEE72DE9F041044652
:100B4000876D00F0D7FA064694F835000025022894
:100B500006D08020606584F834500120BDE8F08123
:100B60002068016821F0160101602068416921F0C8
:100B700080014161206C08B9A06C20B12068016837
:100B800021F0080101602068016821F00101016085
:100B90000CE000F0AFFA801B052807D92020606523
:100BA000032084F8350084F83450D7E720680068C3
:100BB000C007EED194F85C103F208840B860012057
:100BC00084F8350084F834500020C7E790F83510D9
:100BD000022903D08021416501207047052180F85A
:100BE00035100068016821F00101016000207047A4
:100BF000406D704790F83500704700002DE9F843CC
:100C000004464FF00009CDF8009063484FF41651A8
:100C1000A56D0068B0FBF1F72E6894F85C10082011
:100C200000FA01F131420FD021680A6852070BD552
:100C30000A6822F004020A6094F85C108840A860F8
:100C4000606D40F00100606594F85C104FF00108A1
:100C500008FA01F0304208D021684969090604D534
:100C6000A860606D40F00200606594F85C1004209C
:100C70008840304208D021680968890704D5A860F7
:100C8000606D40F00400606594F85C1010208840AE
:100C9000304218D021680968090714D5A860206877
:100CA0000168490304D50068000308D5A16C07E07A
:100CB0000168C90503D4016821F008010160216CB5
:100CC00009B12046884794F85C10202088403042C3
:100CD00031D021680968C9062DD5A86094F835007F
:100CE00005282068016806D0490347D5006800033D
:100CF0001DD4616C1CE021F016010160206841697F
:100D000021F080014161206C08B9A06C20B12068FD
:100D1000016821F00801016094F85C103F208840D0
:100D2000A86084F8358084F83490216D1FE0E16B71
:100D300009B120468847606D00282BD0606DC00740
:100D400014D0052084F835002068016821F00101E5
:100D500001600098401C0090B84203D820680068E9
:100D6000C007F6D184F8358084F83490E16C00290E
:100D700010D001B02046BDE8F04308470168C9051E
:100D8000D5D4016821F01001016084F8358084F821
:100D90003490CCE7BDE8F8830C0000202DE9F04149
:100DA000044600F0A7F906465CB1022084F835003D
:100DB000002584F834502068016821F001010160A9
:100DC0000DE00120BDE8F08100F094F9801B0528BA
:100DD00005D920206065032084F83500F2E72068FB
:100DE0000068C007F0D12268116820480140D4E9AA
:100DF00001031843D4E903363343184363691843A6
:100E0000A3691843E3691843236A18430843616AD6
:100E1000042903D1D4E90B13194308431060206857
:100E20004069666A20F0070130460E430127042816
:100E30000CD1A06A0643E06A40B12046FFF73CFEB1
:100E400020B14020606584F83570BAE720684661BB
:100E50002046FFF71DFE94F85C203F219140816001
:100E6000656584F835700020ACE700003F8010F025
:100E70002DE9F0410446866D90F8340000250128E4
:100E80000DD0012084F8340094F835700020012F33
:100E900007D084F8340002252846BDE8F0810220FE
:100EA000FBE7022784F8357060652046FFF72EFEC9
:100EB00094F85C103F208840B0602068016841F0E1
:100EC00016010160206C20B12068016841F0080122
:100ED00001602068016841F001010160DCE7000069
:100EE00070B5044600F006F90546601C02D00448BF
:100EF0000078044400F0FEF8401BA042FAD370BD15
:100F0000000000202DE9F84FDFF8BCA100220125E8
:100F100003264FF00F090AF1040BAAF1040E00BFDB
:100F20000B6805FA02F42340A34270D10F7907F051
:100F30000307012F01D0022F16D187684FEA42081C
:100F400006FA08FC27EA0C07D1F80CC00CFA08FCDA
:100F50004CEA070CC0F808C04768A7430C79C4F3F3
:100F6000001494403C4344600C79E443A4070AD045
:100F7000C4684FEA420C06FA0CF7BC438F6807FAC4
:100F80000CF72743C7600C7904F00304022C12D13C
:100F9000D40800EB840CDCF820405707FF0E09FA58
:100FA00007F824EA0804D1F8108008FA07F848EA9C
:100FB0000408CCF8208004684FEA420C06FA0CF7CB
:100FC000BC430F7907F0030707FA0CF727430760C4
:100FD0004C6814F4403F70D03C4C276847F480477D
:100FE0002760246822F0030704F480440094384CFE
:100FF00007EB040CDCF8084897074FEA177809FA62
:1010000008F7BC43334FB84202D1002724E054E034
:10101000314FB84201D101271EE0304FB84201D113
:10102000022719E02E4FB84201D1032714E02D4FBB
:10103000B84201D104270FE02B4FB84201D1052758
:101040000AE02A4FB84201D1062705E0284FB842EE
:1010500001D1072700E0082707FA08F72743CCF853
:101060000878DAF800405746D1F804C09C435FEA9C
:10107000CC2C00D51C433C60DBF800405F46D1F827
:1010800004C09C435FEA8C2C00D51C433C60DEF816
:1010900000407746D1F804C09C435FEA8C3C00D501
:1010A0001C433C60084F083F3C68D1F804C09C4397
:1010B0005FEACC3C00D51C433C60521C102AFFF474
:1010C0002FAFBDE8F88F0000083C014044380240D3
:1010D00000300140000002400004024000080240CD
:1010E000000C0240001002400014024000180240B0
:1010F000001C02400148806870470000000000208A
:10110000704770472DE9F041016804464A694E680E
:1011100090F83E000025D743FA0506D4F243D205E5
:1011200003D46FF4807201254A61B90508D4F143F4
:10113000C90505D422686FF4007145F002055161BC
:10114000790525D4F143C90522D4638D94F83D1067
:10115000226B202808D13BB9212910D029290ED093
:10116000282901D1212A0AD022686FF480615161B7
:1011700045F00405102806D0402804D008E0204699
:1011800002F0C8FC04E02068016841F400710160CD
:10119000380508D4F043C00505D421686FF4006019
:1011A00045F008054861002D07D0206C28432064D5
:1011B0002046BDE8F04102F057B8BDE8F0812DE9C6
:1011C000F047026800215368C66A90F83E4090F8E4
:1011D0003D50102C12D0402C10D0046C002C7DD02F
:1011E0005469E443A6077AD4DE43B60577D4036C8A
:1011F00003B19169BDE8F04702F068BC9769516995
:101200004FF42A0CC9435FEAC1784FF02A4904D051
:1012100066452AD04E4528D010E0DE43B6050DD4F1
:10122000C16A614501D1012103E0C16A494501D18B
:101230000821C162BDE8F04702F0AEBB0E0716D42C
:10124000DE43B60513D4416CC9B21161416B09B1DB
:10125000C96B29B9816B002907D0C96B002904D05B
:101260000068416841F400614160BDE8F0878E0785
:1012700006D4DE43B60503D4BDE8F04702F000BB58
:10128000FE43526876074FEA02521DD4002AECDB77
:101290000A0608D4DA43520505D4490705D5BDE846
:1012A000F04702F091BA4907DFD4D9438905DCD46D
:1012B000212D05D0402CD8D1BDE8F04702F0B2BBBB
:1012C000BDE8F04702F03EBA002ACEDB4A060BD456
:1012D000DA43520508D4490708D501E00DE00EE0D5
:1012E000BDE8F04702F0F0B84907BED4D9438905FC
:1012F000BBD4BDE8F04702F07AB8916970E7E10627
:1013000006D4D943890503D4BDE8F04702F04ABCAE
:101310002821212D27D0292D25D0650655D4DD4340
:101320006D0552D4640752D590F83D30448D002CA1
:101330009BD01269446A2270426A521C4262428DFA
:10134000521E4285428D002A8FD12A2B8DD10268F0
:10135000536823F4806353602222026380F83D10B7
:1013600000F00CFC81E7250623D4DD436D0520D475
:10137000640720D590F83D30448D002CF2D0446AAB
:1013800024781461426A521C4262428D521E428588
:10139000428D002AE6D1292BE4D10268536823F458
:1013A000806353602122026380F83D1000F0E7FB68
:1013B0005BE76107D6D4D9438905D3D4418D002991
:1013C000D0D0416A097811610AE06107CAD4D943D3
:1013D0008905C7D4418D0029C4D01169426A1170B2
:1013E000416A491C4162418D491E41853DE702F039
:1013F000A9BE000070B5040025D094F83D0000257A
:1014000020B984F83C50204600F058FB242084F892
:101410003D002068016821F0010101602068016839
:1014200041F4004101602068016821F4004101603D
:1014300000F010FD4D4A6168914201D84C4900E02E
:101440004C49884201D2012070BD4B492368B0FB52
:10145000F1F15E6826F03F060E435E6063689342DA
:1014600006D94FF4967359434FF47A73B1FBF3F1F5
:101470002368491C1E6A26F03F06314319626168E1
:10148000914210D84900401EB0FBF1F2521CC2F349
:101490000B02042A01D2042022E0B0FBF1F0401C30
:1014A000C0F30B001CE0A268F2B301EBC10303EB35
:1014B0000116431EB3FBF6F35B1C43F480431B058C
:1014C00049D092B301EBC10202EB0111401EB0FB07
:1014D000F1F0401CC0F30B0040F4804040F40040A9
:1014E0002168CA694CF6FF739A431043C861D4E976
:1014F000071001432068026822F0C0021143016016
:10150000D4E9030101432068826848F2FF339A431B
:1015100011438160D4E9050108432168CA6822F0BB
:10152000FF021043C86001E00EE016E02068016889
:1015300041F0010101602564202084F83D0025630D
:1015400084F83E50002070BD01EB4106431EB3FB02
:10155000F6F35B1CB3E70120C2E701EB4101401E3B
:10156000B0FBF1F0401CC0F30B00B7E7A086010010
:1015700080841E0000093D0040420F00704702F0C9
:10158000EDBD02F013BE00002DE9F84F1F46904656
:101590008A460446DDF82890FFF7ACFD054694F82E
:1015A0003D00202871D11923012270492046009561
:1015B00002F0D2FB0028F5D194F83C00012864D059
:1015C000012084F83C0020680168C90703D1016844
:1015D00041F0010101602068016821F400610160AF
:1015E000222084F83D00102084F83E000026266466
:1015F000C4F824806785608D20855D48E0622B46B5
:101600004A465146204601F0D9FF002876D1208D68
:10161000584F68B1012814D002282068016816D0FC
:1016200041F48061016020684169806900908EE02A
:101630002068416981690091016841F4007101608D
:1016400085E02068016821F480610160F0E721F401
:10165000806101602068016841F40061E2E70328CD
:1016600046D801280AD0022810D04B46002239461D
:101670002046009502F070FBC8BB25E02A4649468B
:10168000204602F00FFC90BB54E06CE04B46002279
:1016900039462046009502F05FFB40BB2068016898
:1016A00041F40071016020680069616A0870606A35
:1016B000401C6062218D491E2185618D491E618516
:1016C00021680969017039E02068016821F48061AE
:1016D000016020680069616A0870606A401C60628D
:1016E000208D401E2085608D401E6085CEE705E080
:1016F0002A464946204602F0D5FB10B10120BDE83C
:10170000F88F20680069616A0870606A401C606236
:10171000208D401E81B22185608D401E608520682D
:101720004269D243520712D4032903D1016821F43C
:101730008061016020680069616A0870606A401C0D
:101740006062208D401E2085608D401E6085208D4A
:10175000002884D1202084F83D0084F83E6084F87D
:101760003C600020CBE70220C9E700000200100027
:101770000000FFFF04000100F8B5002504460095B5
:1017800090F83D00202828D14E4846F2A81600685F
:10179000B0FBF6F000EBC00606EB00102026009030
:1017A0000098401E009010D020688069C0438007D8
:1017B000F6D594F83C0001280FD0012084F83C00B5
:1017C00020680768FF070AD00DE044F8305F6673B1
:1017D000A573206940F0200020610220F8BD076851
:1017E00047F0010707602068076827F40067076073
:1017F000222084F83D00102084F83E0025646262B7
:101800006385608D20853048E0626164208DE0B39F
:10181000A06B10B32D49C163A16B2D48C864A06BA8
:101820000564A06B4564A06B8564A06B05652168A9
:10183000238D1031626AA06BFFF71AFBB0B184F8F8
:101840003D6084F83E5054F8400F40F0100000BF57
:1018500044F8040901202570F8BD84F83D6084F83F
:101860003E5054F8400F40F08000F1E720680168D6
:1018700041F4806101602068016841F48071016079
:1018800084F83C502068416800E008E041F4407171
:1018900041602068416841F40061416010E084F8D3
:1018A0003C502068416841F4E06141602068016873
:1018B00041F4806101602068016841F48071016039
:1018C0000020F8BD0C0000200000FFFF453100089B
:1018D000053100082DE9F84F1F4690468A46044618
:1018E000DDF82890FFF706FC054694F83D00202817
:1018F0007FD11923012240492046009502F02CFA9D
:10190000002876D194F83C00012872D0012084F898
:101910003C0020680168C90703D1016841F001015A
:1019200001602068016821F400610160212084F8D1
:101930003D00102084F83E0000262664C4F8248070
:101940006785608D20852D48E0622B464A465146CA
:10195000204601F0A9FE90B9206841698069009095
:1019600036E02A464946204602F0D4FA50B1206CAF
:10197000042804D12068016841F40071016001204D
:10198000BDE8F88F606A216800780861606A401CD1
:101990006062618D491E6185218D491E89B2218554
:1019A00022685369DB435B070BD451B100781061A7
:1019B000606A401C6062608D401E6085208D401E04
:1019C00020852A464946204602F09AF90028CED1C1
:1019D000208D0028C5D154F83D0B016841F40071F9
:1019E0000160202004F81E09E67766770020C7E72B
:1019F000FFE70220C4E70000020010000000FFFF24
:101A000078B50024009490F83D50202D4ED1284DFB
:101A100046F2A8162D68B5FBF6F505EBC50606EBF4
:101A2000051500956D1E009506D00568AD69ED435E
:101A3000AD070BD4009DF5E740F8304F20214173EE
:101A40008473016941F0200101612FE090F83C505E
:101A5000012D2BD0012580F83C5005682E68F60733
:101A600003D12E6846F001062E6005682E6826F424
:101A700000662E60212580F83D50102580F83E50EC
:101A8000046442624385428D02850A4AC26241640F
:101A900080F83C4001684A6842F4E0624A600068AD
:101AA000016841F480710160002078BD022078BD9A
:101AB0000C0000200000FFFF7047704770B586B033
:101AC000064614216846FEF746FC274930688842DE
:101AD00048D126480025016841F0020101600068F4
:101AE000694600F0020005904FF44070009012200B
:101AF00001900120029003200390042004901C48D0
:101B0000FFF700FA19481030016841F40011016034
:101B10000068194C00F4001005901648206040053C
:101B2000C4E90105C013C4E903506561A561E5611D
:101B3000256220466562FFF731F908B1FEF7FBFF29
:101B4000B463002211461F20A66300F0B7F81F20DF
:101B500000F0A6F800221146202000F0AFF8202067
:101B600000F09EF806B070BD0054004030380240CE
:101B70000004024010600240B80000207047704727
:101B800070B5040013D021684CF6CC400860216881
:101B900045F255500860D4E9000141602168A06811
:101BA0008860FFF7A7FA054641F601060DE001201F
:101BB00070BD00BFFFF79EFA401BB04205D92068F8
:101BC000C068800701D0032070BD2068C06880070E
:101BD000F0D121684AF6AA200860002070BD006894
:101BE0004AF6AA210160002070470000024881687F
:101BF0000278114481607047000000200B4810B546
:101C0000016841F400710160016841F48061016084
:101C1000016841F480710160032000F06FF80F202B
:101C200000F006F800F024F8002010BD003C02404F
:101C300070B50D4D04464FF47A712878B1FBF0F081
:101C40000A490968B1FBF0F000F00CFB48B9102C10
:101C500007D200222146501E00F030F800206C60B0
:101C600070BD012070BD0000000000200C000020AD
:101C70000A4808B5016841F480410160006800F439
:101C8000804000900548001F016841F080510160CC
:101C9000006800F08050009008BD00004438024009
:101CA000002809DB00F01F0201219140400980005B
:101CB00000F1E020C0F8001170470000F0B40E4BB6
:101CC0001B680C46C3F30223C3F10705042D00D99A
:101CD0000425191D072901D2002300E0DB1E01267F
:101CE00006FA05F1491E214099409E40761E164095
:101CF0003143F0BC03F005BC0CED00E0064900F0F8
:101D0000070208684FF6FF03184040EA0220034A22
:101D100010430860704700000CED00E00000FA0579
:101D20002DE9F0470E46050065D0DFF81481D8F89C
:101D30000000F7B200F00700B04207D288F8007048
:101D4000D8F8000000F00700B04254D128683D4C9C
:101D5000810712D5400703D5206840F4E050206089
:101D60002878000703D5206840F460402060206890
:101D7000A96820F0F000084320602878C0072DD023
:101D8000304968680839012812D0022813D0032886
:101D900011D00968890700292DDA216821F0030193
:101DA00001432160FFF7A6F9814641F2883A0EE02F
:101DB00009688903EFE709688901ECE7FFF79AF9F9
:101DC000A0EB0901514502D90320BDE8F087206846
:101DD000696800F00C00B0EB810FEFD1D8F800106B
:101DE000404601F00701B14207D90770006800F0D2
:101DF0000700B04201D00120E7E72878400705D569
:101E00002068E96820F4E050084320602878000743
:101E100006D52068296920F4604040EAC1002060AE
:101E200000F038F82168084AC1F30311515CC8403A
:101E30000649086006480068FFF7FAFE0020C4E77C
:101E4000003C0240083802407A5F00080C00002085
:101E5000040000200448054900680968044AC1F3E9
:101E60008221515CC84070470C00002008380240B5
:101E70008A5F00080448054900680968044AC1F3FC
:101E80004231515CC84070470C00002008380240C5
:101E90008A5F0008154810B5006810F00C0214485D
:101EA00013D01449042A0FD0082A0ED10F4C241F36
:101EB0002268236802F03F025B0207D52068C0F366
:101EC0008810A0FB010106E0084610BD2168C1F39F
:101ED0008811A1FB00010023FEF7C6F92168C1F3B8
:101EE0000141491C4900B0FBF1F010BD0838024027
:101EF0000024F40040787D012DE9F84F04006ED0F5
:101F00002078DFF84C93C007A9F104054AD009F105
:101F100004000168C1F38101012908D00068C0F301
:101F2000810002280AD1D9F80000400206D52868AD
:101F3000800337D560680028E1D033E06068B0F5F1
:101F4000803F10D0B0F5A02F286810D020F480304A
:101F50002860286820F4802028606068A8B1FFF716
:101F6000C9F806460DE0286840F48030F4E740F4F4
:101F700080202860F7E700BFFFF7BCF8801B6428CB
:101F800073D828688003F7D50CE0FFF7B3F806464E
:101F900005E000BFFFF7AEF8801B6428F0D8286882
:101FA0008003F7D42078DFF8AC8280074FF0000A76
:101FB0003ED5A748001D016811F00C0F08D000683D
:101FC000C0F3810002280BD1D9F80000400207D4E9
:101FD0002868800716D5E068012800D112E033E1B7
:101FE000E068B8B10120C8F80000FFF783F80646A2
:101FF00005E000BFFFF77EF8801B0228C0D82868E4
:102000008007F7D52868216920F0F80040EAC10070
:1020100028600DE0C8F800A0FFF76CF8064604E061
:10202000FFF768F8801B02281FD828688007F7D4BC
:102030002078000722D5864F87486169703771B1D3
:1020400001210160FFF756F8064604E0FFF752F859
:10205000801B022809D838688007F7D50EE0C0F841
:1020600000A0FFF747F8064605E082E0FFF742F8D8
:10207000801B02287DD838688007F7D42078400775
:1020800068D5DFF8CCB100270BF13C0BDBF8000082
:10209000C0000BD4DBF8001041F08051CBF80010E9
:1020A000DBF80000012700F0805000906B4E306894
:1020B000C00510D4306840F480703060FFF71AF823
:1020C000009005E0FFF716F80099401A022850D852
:1020D0003068C005F6D55E4EA0686C3601280FD07A
:1020E0000528306810D020F001003060306820F002
:1020F00004003060A068B8B1FEF7FCFF00900FE06C
:10210000306840F00100F4E740F004003060F7E789
:10211000FEF7F0FF0099411A41F28830814266D8FB
:1021200030688007F4D50EE0FEF7E4FF009007E08A
:10213000FEF7E0FF0099411A41F28830814256D8FB
:1021400030688007F4D42FB1DBF8001021F0805103
:10215000CBF80010A069C8B33D49091D0968C1F357
:10216000810102294AD00228504607D0C8F86000F1
:1021700000E03CE0FEF7BEFF04463BE04746C8F8FF
:102180006000FEF7B7FF064605E000BFFEF7B2FFAE
:10219000801B02282BD828688001F7D4D4E90701D6
:1021A0000843A16A2E4A490802EB0141626A41EAEA
:1021B0008211084394F82C1040EA0161C9F800101C
:1021C00001203866FEF796FF044606E03EE000BFB9
:1021D000FEF790FF001B022809D828688001F7D578
:1021E00034E000BFFEF786FF001B022802D903205F
:1021F000BDE8F88F28688001F4D427E00128F7D0E3
:10220000D9F80000E26900F4800191421CD1226AF1
:1022100000F03F01914217D147F6C071626A014058
:10222000B1EB821F10D1A26A4FF0FF3300F44031AE
:1022300003EB5202B1EB024F06D194F82C1000F0E0
:102240007060B0EB016F01D00120D1E70020CFE733
:102250000438024000004742800E474200700040B0
:102260000000FFFF10B5401EB0F1807F01D30120B8
:1022700010BD4FF0E02460610F21601703F041F9B9
:102280000020A06107202061002010BD704770472A
:1022900070B590F83C20012A32D0012480F83C40EF
:1022A000022280F83D2003685A689D6822F070067B
:1022B0000A6832435A60134B02689A4214D0B2F152
:1022C000804F11D0104B9A420ED0104B9A420BD037
:1022D0000F4B9A4208D00F4B9A4205D00E4B9A42B0
:1022E00002D00E4B9A4204D1496825F0800319436D
:1022F000916080F83D40002180F83C10084670BD98
:10230000022070BD000001400004004000080040B1
:10231000000C004000040140004001400018004053
:1023200010B5040003D094F83D0010B107E001207F
:1023300010BD002084F83C00204600F01FF8022069
:1023400084F83D00211D206802F072FC012084F811
:10235000460084F83E0084F83F0084F8400084F88A
:10236000410084F8420084F8430084F8440084F873
:10237000450084F83D00002010BD000008B5114A5A
:1023800001681148914208D1016841F002010160E1
:10239000006800F00200009008BD0C4A9142FBD199
:1023A000016841F0400101600068002200F0400037
:1023B000009011462B20FFF781FCBDE808402B2040
:1023C000FFF76EBC00040040403802400018004097
:1023D00090F83D10012901D001207047022180F8BA
:1023E0003D100168CA6842F00102CA6000681149E4
:1023F000884214D0B0F1804F11D00F4988420ED0DE
:102400000E4988420BD00E49884208D00D498842B7
:1024100005D00D49884202D00C49884204D1816818
:1024200001F00701062903D0016841F001010160B4
:1024300000207047000001400004004000080040F8
:10244000000C004000040140004001400018004022
:1024500070B5044690F83C000025012817D00126ED
:1024600084F83C60022084F83D002068826822F0F5
:10247000770222F47F4282600868502838D00DDC51
:1024800020284FD005DC90B3102811D14AE002205B
:1024900070BD302846D040280AD13BE060282FD0BC
:1024A00070280DD0B0F5805F03D0B0F5005F12D07A
:1024B000012584F83D60002084F83C00284670BD6A
:1024C000CB68D1E90121206802F027FC20688168EF
:1024D00041F0770109E0CB68D1E90121206802F0E1
:1024E0001CFC2068816841F480418160E1E719E0CB
:1024F000CA684968206802F0E5FC5021206806E0BF
:10250000CA684968206802F0EEFC6021206802F089
:102510000EFCCEE7CA684968206802F0D3FC40216F
:102520002068F4E7226801461046F0E770472DE97D
:10253000F04104460068C66805694FF00007A90726
:1025400013D5B10711D5F91E01610120207720684C
:1025500080698007204602D0FFF7E8FF04E000F022
:10256000E5F8204600F088F92777680716D5700748
:1025700014D521686FF004000861022020772068DC
:10258000806910F4407F204602D0FFF7CFFF04E0BF
:1025900000F0CCF8204600F06FF92777280715D512
:1025A000300713D521686FF00800086104202077F8
:1025B0002068C0698007204602D0FFF7B7FF04E01B
:1025C00000F0B4F8204600F057F92777E80616D552
:1025D000F00614D521686FF01000086108202077FC
:1025E0002068C06910F4407F204602D0FFF79EFFAC
:1025F00004E000F09BF8204600F03EF92777E8075A
:1026000008D0F00706D021686FF00100086120466D
:1026100000F098F9280608D5300606D521686FF035
:10262000800008612046FFF731FE680608D5700675
:1026300006D521686FF040000861204600F084F95B
:10264000A8060AD5B00608D521686FF020000861F9
:102650002046BDE8F041FFF71ABEBDE8F08100005A
:10266000F0B587B0044614216846FDF774FE216872
:1026700000242A4803260225294A2A4FB1F1804F17
:1026800028D0294B994223D1016841F00101016012
:10269000016801F001010591016841F0020101604A
:1026A0000068694600F002000590C0200090CDE966
:1026B00001541046CDE90345FEF724FC0096CDE910
:1026C000015469463846CDE9034500BFFEF71AFCC0
:1026D00007B0F0BD016841F001010160016801F03F
:1026E00001010591016841F0020101600068009656
:1026F000CDE9015400F002000126CDE904606946ED
:1027000003941046FEF7FEFB4FF440600090CDE9C5
:102710000154CDE9034669463846D7E730380240D0
:10272000000002400004024000040040704770B501
:10273000044690F83C0000260D4601280FD00120E9
:1027400084F83C006AB1042A1DD0082A2FD00C2A34
:102750003FD00126002084F83C00304670BD0220A6
:1027600070BD206802F0ECFA2068816941F0080130
:1027700081612068816921F004018161206881699B
:102780002A69114311E0206802F00AFB2068816980
:1027900041F4006181612068816921F48061816177
:1027A000206881692A6941EA02218161D2E72068B3
:1027B00002F02CFB2068C16941F00801C16120686A
:1027C000C16921F00401C1612068C1692A6911430E
:1027D00011E0206802F04EFB2068C16941F40061FD
:1027E000C1612068C16921F48061C1612068C1694B
:1027F0002A6941EA0221C161ACE710B5040003D0A7
:1028000094F83D0010B107E0012010BD002084F8CD
:102810003C00204600F01EF8022084F83D00211DF7
:10282000206802F005FA012084F8460084F83E0092
:1028300084F83F0084F8400084F8410084F84200A6
:1028400084F8430084F8440084F8450084F83D008F
:10285000002010BD08B50068B0F1804F08D10548D0
:10286000016841F001010160006800F00100009082
:1028700008BD0000403802407047000010B5044613
:10288000022249B104290ED0082913D094F841003E
:10289000012816D0012010BD94F83E000128F9D17E
:1028A00084F83E200FE094F83F000128F2D184F82C
:1028B0003F2008E094F840000128EBD184F8402044
:1028C00001E084F841200122206802F019FA16493B
:1028D0002068164A884201D0904203D1436C43F4E9
:1028E000004343642068884213D0B0F1804F10D079
:1028F0000F4988420DD00F4988420AD00E498842BC
:1029000007D0904205D00D49884202D00C49884238
:1029100004D1816801F00701062903D0016841F064
:1029200001010160002010BD0000014000040140D1
:102930000004004000080040000C0040004001403E
:102940000018004001F0BEBC704738B5044690F84E
:102950004200202801D0022038BD51B14AB10120E7
:10296000206300206063204602F004FD216B0129F2
:1029700001D0012038BD21680A68496800912168AA
:102980000C3151E8002F42F0100241E80023002BE7
:10299000F5D138BD70B50C46002832D0002C30D0AF
:1029A00000681849884215D1802C0FD81648007845
:1029B00060B90025154E04E0705D02F0EFFD6D1C5E
:1029C000ADB2A542F8D31248FDF7F2FFBDE8704062
:1029D00002F060BD0F49884213D1402C0DD80E483B
:1029E000007850B9094E0025803604E0705D01F092
:1029F0005FFF6D1CADB2A542F8D3BDE8704002F098
:102A000067BD70BD001001402C000020AC03002009
:102A10006C050020004400402D00002010B5044645
:102A20000068406994F84110C0F3C010212911D109
:102A300080B12068143050E8001F21F0800140E888
:102A40000012002AF5D1A06B08B1FEF776F82046F7
:102A500002F09BFB2068406994F84210C0F380109C
:102A6000222911D180B12068143050E8001F21F0D4
:102A7000400140E80012002AF5D1E06B08B1FEF7F2
:102A80005CF8204602F05AFB002010BD00680549A2
:102A9000884201D102F0FEBC0349884201D102F014
:102AA00017BD70470010014000440040F8B50168B0
:102AB00004460868CA684B6910F00F0F4FF0000514
:102AC00059D003F0010602F49077374365D0C1076F
:102AD00005D0D10503D5616C41F001016164410766
:102AE00005D5D90703D0616C41F00201616481070B
:102AF00005D5D90703D0616C41F004016164010779
:102B000007D502F02001314303D0616C41F0080188
:102B10006164616C00293AD0800604D5900602D524
:102B2000204602F040FB20684069616CC0F38010D1
:102B3000090700D460B3204602F000FB206840691A
:102B4000400621D52068143050E8001F21F04001D4
:102B500040E80012002AF5D1E06BA8B17249016586
:102B6000E06BFEF733F8002811D0E06B016D01B087
:102B7000BDE8F040084783060FD593060DD52046E3
:102B8000BDE8F84002F00FBB2046FFF77FFFF8BD1D
:102B90002046FFF77BFF6564F8BD266B2023012EDE
:102BA0007ED1C6067CD5D6067AD5086848680090DE
:102BB00048694FF0020640064DD5E26B1068406848
:102BC0004FF480770004000C3AD0A18D814237D9B0
:102BD000E085D069B8422DD020680C3050E8001F45
:102BE00021F4807140E80012002AF5D120681430E9
:102BF00050E8001F21F0010140E80012002AF5D141
:102C00002068143050E8001F21F0400140E8001215
:102C1000002AF5D184F84230256320680C3050E852
:102C2000001F21F0100140E80012002AF5D1E06BEE
:102C3000FDF783FF6663A08DE18D401A81B206E047
:102C4000A18D8142A8D1D069B842A5D16663204642
:102C5000FFF7A0FEF8BDA08DE18D401A81B2E08D96
:102C60000028F7D00029F5D020680C3050E8002F5C
:102C700022F4907240E80027002FF5D1206814302C
:102C800050E8002F22F0010240E80027002FF5D184
:102C900084F84230256320680C3050E8002F00E0B3
:102CA00006E022F0100240E80023002BF3D1CDE72C
:102CB00005062BD5150629D594F841002128C9D140
:102CC000A068B0F5805F01D12069B0B1206A411CD5
:102CD0002162216800784860E08C401E0004000CEE
:102CE000E084B7D12068C16821F08001C16020680C
:102CF000C16841F04001C160F8BD206A0088C0F39E
:102D000008004860206A801C2062E5E74006F3D591
:102D10005006F1D5CA68204622F04002CA6084F805
:102D2000413000F081F9F8BDF54F000870B504009E
:102D300004D094F84100002510B106E0012070BDD8
:102D400084F84050204600F023F8242084F8410005
:102D50002068C16821F40051C160204602F084FA65
:102D60002068016921F4904101612068416921F0E6
:102D70002A0141612068C16841F40051C160656465
:102D8000202084F8410084F842006563002070BD73
:102D90002DE9F04387B0064614216846FDF7DBFABB
:102DA000DFF83CC1022135684E4803220723002486
:102DB0008F064FF48069654537D14A4D1435D5F8F3
:102DC00000C04CF0100CC5F800C02D6805F01005CF
:102DD0000595056845F002050560006800F00200F1
:102DE0000590C0208DE8130069463F48CDE90323D4
:102DF000FEF788F83E4D3D482860C5E90174C5E9F5
:102E000003496C61AC61EC612C6228466C62FDF791
:102E1000C5FF08B1FDF78FFEF5630022114625209E
:102E2000AE63FEF74BFF252054E0DFF8C8C06545D0
:102E300052D12C4D1035D5F800C04CF4003CC5F8EB
:102E400000C02D6805F400350595056845F00105BD
:102E50000560006800F0010005900C208DE813006B
:102E600069462548CDE90323FEF74CF8204D234859
:102E70006035B8462860C5E90174C5E903496C614D
:102E8000AC61EC612C624F4628466C62FDF786FF10
:102E900008B1FDF750FEF563AE63154D1748C03518
:102EA0001830E5E80208402091C5114845F814495A
:102EB000C030AC61EC612C626C62FDF76FFF08B151
:102EC000FDF739FEB563002211462620AE63FEF7FA
:102ED000F5FE2620FEF7E4FE07B0BDE8F083000013
:102EE00000100140303802400004024040640240BB
:102EF0008C02002000440040000002408860024034
:102F0000704770472DE9F843044690F84100984611
:102F100016460D46202802D00220BDE8F88385B170
:102F20007EB100206064212084F84100FEF7E2F8C1
:102F3000A6848146E684A0682027B0F5805F02D091
:102F400003E00120E9E7206910B12E4600250EE0DC
:102F500000260CE08021204602F05CFAA8B9C6B138
:102F600016F8010B21684860E08C401EE084E08C7C
:102F70004B464FF00002CDF800800028EAD14FF018
:102F80004001204602F046FA40B184F84170032027
:102F9000C3E735F8020BC0F30800E3E784F841709B
:102FA0000020BAE770B5044690F84100202801D00F
:102FB000022070BD01B3FAB12162A284E284002034
:102FC0006064212384F84130A56B144BEB63A56B3F
:102FD000134B2B64A56B134BEB64A36B1865206834
:102FE0001346A56B021D2846FDF742FF30B11020A5
:102FF0006064202084F84100012070BD21686FF0DA
:10300000400008602068143050E8001F41F0800143
:1030100040E80012002AF5D1002070BDF1500008F0
:10302000335100080350000870477047FEE7000066
:103030000148FEF767B80000640000200148FEF771
:10304000BEB800006400002038B5806B002190F805
:103050003D202B4B46F2A8141B68B3FBF4F3C3EBE3
:10306000C30303EB830300933BB15B1E0093036830
:103070001B689B0505D5009BF6E7036C43F0200316
:103080000364436B03B1D963836B03B1D9630368F2
:103090001C6824F480641C604185436B03B119658E
:1030A000836B03B1196503681C6824F001041C607C
:1030B00090F83D402023602C0BD0282434EA0202F3
:1030C0000FD080F83D3080F83E1000BFFEF78FF93A
:1030D00038BD80F83D3080F83E100164FEF710F8EE
:1030E00038BD0268136843F0010313600268136877
:1030F00043F480631360016380F83D40E6E700001D
:103100000C00002070B5846B0025616B01B1CD63AC
:10311000A16B01B1CD63FDF76BFD022811D02068D2
:10312000016821F4806101606585202084F83D00FC
:1031300084F83E50206C40F0100020642046FEF7DA
:1031400056F970BD2DE9F041846B94F83D2094F858
:103150003E50E16A2068436823F440734360636B28
:10316000002003B1D863A36B03B1D863212333EAF2
:1031700002074FF022060CD036EA020701D1202DBB
:1031800007D094F83E20002A21D0628D012A20D059
:1031900024E021684D6825F400654D606085282095
:1031A000292A02D02A2A07D00CE0236384F83D00A4
:1031B0002046FEF7E4FC05E0266384F83D00204647
:1031C000FEF7DCFC2068416841F440714160BDE8D5
:1031D000F0812268136823F48063136022685368C7
:1031E00023F44073536011F5803F06D0082904D0C2
:1031F000B1F12A4F01D0202904D12268136843F489
:10320000007313602268536823F48053536022686C
:10321000536823F4006353606085226C1AB1204622
:10322000FEF7E5F8D3E7202284F83D2094F83E200D
:1032300084F83E00402A09D0082902D0202900D075
:10324000122020632046FEF79AF9C0E7206320464B
:10325000FEF732FCBBE700684169C943090601D4A7
:10326000002101617047000070B5044690F83D00F0
:1032700094F83E10102901D0402906D1222804D10B
:1032800021680A6822F400620A60282131EA0002FB
:103290004FF000054FF0200626D021684968090547
:1032A00005D4602803D084F83D6084F83E5025633F
:1032B00020684168090537D5416821F40061416003
:1032C000606B90F835203C49012A11D00165606B94
:1032D000FDF77CFC38B32068016821F00101016032
:1032E00084F83D60606B1CE0256384F83D10DFE7E7
:1032F000A06B0165A06BFDF769FCA0B12068416976
:10330000C943490605D40069616A0870606A401CB7
:1033100060622068016821F00101016084F83D606D
:10332000A06B016D884710E094F83D10602910D023
:103330004169C943490605D40069616A0870606A39
:10334000401C60622046FEF752F8206CC1071CD179
:1033500015E084F83D6025644169C943490605D4F8
:103360000069616A0870606A401C606220680168D8
:1033700021F0010101602046FDF7C2FEE5E781076B
:1033800003D4410701D4000704D52068416821F423
:10339000E061416094F83D00216C49070BD5282875
:1033A00009D10648E062256384F83D6084F83E5008
:1033B0002046FEF7E3F870BD493000080000FFFF2B
:1033C00001684A69D24352050FD46FF480624A61A2
:1033D000002140F8301F202242738173026942F0BD
:1033E000040202610173012070470020704710B58C
:1033F000C26A438D0168042B06D0438D032B08D08D
:10340000438D022B1DD012E04A6822F480624A608C
:103410000CE04B6823F480634B60042A06D0022A38
:1034200004D001680A6822F480620A6001680969B0
:10343000426A1170416A491C4162418D491E4185B1
:1034400010BD012A34D0102A32D0042A34D0022AE6
:1034500032D00B6843F400730B6001680969436A5A
:103460001970416A491C4162438D5B1E43850368A4
:103470001B690B70416A491C4162418D491E41859F
:1034800001684B6823F440734B60202180F83D10A5
:1034900090F83E300021402B80F83E1010D0082AD2
:1034A00002D0202A00D012210163FEF768F810BD77
:1034B0000B6823F48063CFE70B6843F48063CBE7AA
:1034C0000163FEF7F9FA10BD38B590F83D102229D6
:1034D00010D1C36A418D03290DD901680969426A77
:1034E0001170416A491C4162418D491E4185418DDF
:1034F000032906D038BDC26A022A02D0012906D0AB
:1035000029B10068416821F48061416038BD2A4AD0
:1035100046F2A81400211268B2FBF4F202EB820218
:10352000009202682024009D6D1E009526D015682B
:10353000AD05F8D4156825F48065156002685568F6
:1035400025F4E065556002681269456A2A70426A8E
:10355000521C4262428D521E428580F83D4090F8D6
:103560003E2080F83E10402A21D0082B02D0202B8C
:1035700000D012210163FEF702F838BD036C43F05E
:1035800020030364536823F4E06353600268126904
:10359000436A1A70426A521C4262428D521E428530
:1035A00080F83D4080F83E10FDF721FF38BD0163F3
:1035B000FEF782FA38BD00000C0000202DE9F84F1C
:1035C0000446C06A1E4693460D4621680A6842F4C6
:1035D00080620A60082807D0012805D010F5803FD6
:1035E00002D0206B112804D12068016841F4807159
:1035F00001604FF001195B460022494620460096C3
:1036000000F0AAFB4FF4007840B120680068C005C4
:1036100001D5C4F840800320BDE8F88F2069DFF8A9
:1036200084A0B0F5804F0FD00620216800EAD5179E
:1036300047F0F000086133465A460AF10601204679
:1036400000F0D2FB58BB03E0E8B240F001001CE000
:103650002168E8B2086133465A465146204600F0D8
:10366000C3FBE0B92068416981690091016841F4B8
:10367000807101605B46002249462046009600F0BA
:103680006BFB0028C1D147F0F10021680861334687
:103690005A465146204600F0A7FB0028BCD0012026
:1036A000BAE7000002000100F8B50446C06A1E46F1
:1036B0000D461746082807D0012805D010F5803F91
:1036C00002D0206B122804D12068016841F4807177
:1036D0000160134600224FF001112046009600F0D1
:1036E0003BFB40B120680068C00502D54FF4007074
:1036F00020640320F8BD2069B0F5804F0ED006206D
:10370000216800EAD51040F0F000086133463A46DF
:103710000B49204600F068FB78B902E005F0FE0096
:1037200000E0E8B221680861054933463A46891F3E
:10373000204600F059FB0028DCD00120F8BD000035
:103740000800010010B5C26A90F83D1021290BD184
:10375000418D51B1416A026809781161416A491C81
:103760004162418D491E418510BD20230021082A58
:1037700013D0202A11D012F5803F0ED00268546871
:1037800024F4E06454601122026380F83E1080F853
:103790003D3000BFFDF7F5FE10BD0268546824F40B
:1037A000E06454600268146844F4007414600163B7
:1037B00080F83D3090F83E2080F83E10402AE9D154
:1037C000FEF77BF910BD000010B590F83D1090F8A1
:1037D0003E30C26A048DB4B1212903D0402B11D1EF
:1037E00022290FD1418DE1B390F83E10402942D0FB
:1037F000416A026809781161416A491C4162418D40
:10380000491E418510BD2129E8D120230021082A25
:1038100013D0202A11D012F5803F0ED002685468D0
:1038200024F4E06454601122026380F83E1080F8B2
:103830003D3000BFFDF7A5FE10BD0268546824F4BA
:10384000E06454600268146844F400741460016316
:1038500080F83D3090F83E2080F83E10402AE9D1B3
:1038600000E002E0FEF729F910BD0068416821F48C
:103870008061416010BDBDE8104000F0D3B8000089
:1038800078B590F83E50C26A036B90F83D60002412
:103890000168222E7AD1066D0EB9402D76D0056DC5
:1038A0001DB90569B5F5404F09D0458D05B3468D65
:1038B000384D012E0ED0438D022B3AD05DE04A697F
:1038C0008A6900920A6842F480720A60016D491C9C
:1038D000016578BDAA4213D10A6822F480620A60A9
:1038E00001684A68120503D50A6822F4806216E06E
:1038F0004A698A6900920A6842F400720A6039E0F3
:10390000082A10D0202A0ED0122B0AD0042A03D065
:10391000022A01D0102AE7D10A6842F480620A60C4
:1039200024E0012AE0D00A6822F480620A6001687B
:10393000DEE7042A21D0022A1FD0102A1DD00B68EE
:1039400023F480630B6001680B6843F400630B6031
:1039500001684B681B0509D5AA4212D0012A10D074
:10396000082A0ED0102A0CD0202A0AD001684A69F1
:1039700089690091046578BD08E00B6843F48063B1
:10398000E5E74A6842F480524A60EFE7486988698F
:103990000090F0E70000FFFF90F83E10402910D0A3
:1039A0000169B1F5804F19D0016DA9B3016D0129ED
:1039B00010D1416C5FF0F10201F4407142EAD11183
:1039C00006E0016D0029416C05D0C9B241F001014A
:1039D00000680161704701F0FE01F9E790F83D10C1
:1039E0002129416C09D0C9B241F00101026811617D
:1039F000416B29B1C96B49B902E001F0FE01F5E75D
:103A0000816B0029E6D0C96B0029E3D000684168CA
:103A100041F4006141607047FFE7416CF02201F41E
:103A20004071CBE710B590F83D10026D4AB1026DC0
:103A3000012A14D0026D022A16D0BDE81040FFF70B
:103A40000ABCC16C0129816C02D0C1F3072108E0D6
:103A50000268C9B21161016D891C016510BD816CDC
:103A6000C9B20268116123E022291CD0428D0AB13B
:103A7000212920D0428D002AF0D12129EED10168E0
:103A80004A6822F4E0624A6001680A6842F40072FF
:103A90000A6000210163202280F83D2080F83E105A
:103AA000FEF70BF810BD01680A6842F480720A60E4
:103AB000016D491CD1E7416A026809781161416AC8
:103AC000491C4162418D491E418510BD38B50C46E7
:103AD00090F83D2000212825954302680B4605D02B
:103AE00051699169009180F83C3038BD556825F4E2
:103AF00080655560E243540700D50121120601D5C7
:103B0000828900E0028B80F83C3092B2FDF7F9FA2E
:103B100038BD00002DE9F04190F83D300446C26AFE
:103B2000002120261E4F00686FF48065082A01D00E
:103B3000202A01D1282B04D0212B17D04561BDE8C4
:103B4000F081E762426822F4E062426020684561E9
:103B50002068026822F480620260216384F83D607C
:103B600084F83E102046FDF709FDE8E7E7622122D0
:103B7000226384F83D6084F83E10416821F4E061DE
:103B80004160206845612068016821F4806101601E
:103B90002046FFF760FB2046FDF7F1FFCFE700006E
:103BA0000000FFFFF8B590F83D60044600684168EA
:103BB00021F4E061416020680025416900910168BD
:103BC00041F0010101602068016821F48061016019
:103BD00020684168090520D5474F222E48D02A2E5B
:103BE00046D0616B096849686185618D19B1216CA6
:103BF00041F004012164416821F400614160606B7F
:103C0000FCF7F8FF012808D0606B0765606BFCF7D4
:103C1000DDFF10B1606B016D8847608D08B32068CF
:103C20004169C943490708D40069616A0870606A3C
:103C3000401C6062608D401E608520684169C943F8
:103C4000490608D40069616A0870606A401C6062B5
:103C5000608D401E6085608D18B1206C40F00400BE
:103C60002064206C00B32046BDE8F840FFF7FCBAA2
:103C7000A16B096849686185618D19B1216C41F0BA
:103C800004012164416821F400614160A06BFCF7EC
:103C9000B1FF0128C1D0A06B0765A06BFCF796FFB0
:103CA0000028BAD0A06BB6E72A2E06D125632820BB
:103CB00084F83D002046FDF761FF94F83D10202078
:103CC00028290DD0216B222901D0222E07D125636E
:103CD00084F83D0084F83E502046FDF74FFFF8BDC4
:103CE0000649E162256384F83D0084F83E50204691
:103CF000FDF744FCF8BD0000493000080000FFFF5C
:103D000070B516460D4604461EE02046FFF758FBE8
:103D100008B1012070BD681C16D0FDF7EBF9801BBF
:103D2000A84200D885B920684069C04340070BD538
:103D3000002044F8300F20216173A073216941F005
:103D4000200121612073E4E720684069C0434007F7
:103D5000DBD4002070BD00002DE9F04798461746DF
:103D60000D460446C1F30746DDF820902AE000BF67
:103D7000B8F1FF3F26D0FDF7BDF9A0EB09014145A1
:103D800002D8B8F1000F1DD12068012E16D080692D
:103D900025EA00000004000C12D00020B84211D126
:103DA000002044F8300F20216173A073216941F095
:103DB0002001216120730120BDE8F0874069E7E719
:103DC0000120EBE72068012E0AD0806925EA000077
:103DD0000004000C06D00020B842C9D00020EBE758
:103DE0004069F3E70120F7E72DE9F04798461646CA
:103DF0000D4604464FF000094FF0200AC1F3074773
:103E000023E020684069C043400515D4206801685C
:103E100041F40071016021686FF480604861C4F86A
:103E2000309084F83DA084F83E90216C41F004016C
:103E3000216484F83C9021E0701C06D0FDF75AF90B
:103E4000A0EB0800B04203D816B1012F1FD021E02B
:103E50002068012F15D0806925EA00000004000CBD
:103E600018D000BF44F8309F84F80DA084F80E905D
:103E7000216941F02001216184F80C900120BDE806
:103E8000F087406925EA00000004000CEAD12068B0
:103E9000406901E02068806925EA00000004000C08
:103EA000AFD1ECE72DE9F041002590460E460446DF
:103EB000202728E04069C043C0060CD454F8301BCA
:103EC0006FF01000486144F810596777A577206AB1
:103ED0002062257714E0FDF70DF9A0EB0800B04251
:103EE00000D886B920684069C04340060BD544F825
:103EF000305F6773A573206940F02000206125734F
:103F00000120BDE8F08120684169C9434906D1D448
:103F10000020F6E770B516460D4604461EE0204622
:103F2000FFF74EFA08B1012070BD681C16D0FDF7EE
:103F3000E1F8801BA84200D885B920684069C043D9
:103F400000060BD5002044F8300F20216173A073C8
:103F5000216941F0200121612073E4E72068406974
:103F6000C0430006DBD4002070BD00002DE9F34FF4
:103F7000DFF8BC81002383B0B8F80A00A1EB002170
:103F8000B8F80C00CA17A0FB014503FB015500FB64
:103F90000250450245EAD450B8F8045000F5FA60E2
:103FA0002C0C2E04B8F80850A5FB017C03FB01CCB7
:103FB00005FB02C5FF0947EA4567F61944EBE5141E
:103FC000CDE90064B8F80660B8F80250A6FB017CA1
:103FD00003FB01C306FB02364FEA55444FEA1723A1
:103FE0004FEAC53543EA0663EB1844EB262E0293ED
:103FF000B0F5FA6F54DA81FB01130322A1FB0265CD
:1040000003FB0252002401FB04214FEA610BA0F5DF
:10401000FA6181FB01450323A4FB031605FB03633F
:10402000002204FB023252104FEA3109A0F5FA6176
:1040300081FB01154FF00503A1FB034705FB03734B
:104040004FF0000601FB06314FEAD40343EA417307
:1040500040F2DC544FEAE101E04236DA00F2DC5A89
:104060008AFB0A470725A4FB056807FB05854FF077
:10407000000C04FB0C5416EB090962414FEA8A0755
:104080005446A7FB04C84FEAEA75AE0046EA9A76A2
:1040900006FB0A8407FB05441CEB0303614114E0A3
:1040A0004C18A4FB016542EB020303FB015104FB26
:1040B00002114FEA611BA0F5FA6181FB01120909A7
:1040C00041EA0279121100231946A0EB0B04DDE945
:1040D0000060B6EB0905029E60EB0200F31A6EEB7E
:1040E000010203990026A1FB037C06FB03C301FB2D
:1040F00002317A0D42EAC1224915521B61EB0001DF
:10410000500B40EAC1400A490A4A1031DFED0A0A61
:10411000C1E900409268801A00EE100AB8EEC00AA9
:1041200080EE201A81ED021A05B0BDE8F08F000084
:1041300098070020500000208F2A754400487047DF
:10414000A80700200349884202D103490020887053
:104150007047000064000020500000201149884290
:104160001FD11148817804291BD1421D1178537841
:104170000904927841EA032111430279012A0AD005
:10418000C160012101704178491C417040780928C3
:1041900004D3012003E0016100214170002000F000
:1041A00077B8704764000020500000200C4910B51B
:1041B000884212D10B4CA07801280FD0A078032898
:1041C0000BD10420A0700323621DEC210448FDF7ED
:1041D000D3FA002801D00020A07010BD0220FBE718
:1041E00064000020500000202DE9FE431D4E1E20DB
:1041F0001425F0700123F21CEC211B480095FDF7FB
:1042000069FBD8B90A20FCF76BFE0024DFF85C805C
:10421000A02700BF07EB44008DF80400012301AA8A
:10422000EC2111480095FDF755FB38B9022302AA8D
:10423000EC210D480095FDF7A7F910B10120BDE86C
:10424000FE83BDF8080040BA28F81400641CE4B2EC
:10425000072CDFD3002070703070012000F018F8B8
:104260000020ECE7500000206400002098070020A8
:1042700006490878002807D072B600200870C86880
:10428000096962B6FFF772BE704700005000002057
:1042900010B50A4C207178B15A20E0700120A0704E
:1042A000064A0346D21CEC210548FDF7A9FB00286D
:1042B00001D00020A07010BD4A20EEE75000002081
:1042C0006400002070B5094CA07802280CD10025AC
:1042D000E5700320A0700123E21CEC210448FDF7E7
:1042E0008FFB002800D0A57070BD0000500000209A
:1042F00064000020194808B5016841F4001101600C
:10430000016801F400110091016841F4800101602D
:104310000068002200F48000009011460B20FDF799
:10432000CDFC0B20FDF7BCFC002211461020FDF750
:10433000C5FC1020FDF7B4FC002211461120FDF74A
:10434000BDFC1120FDF7ACFC002211463A20FDF720
:10435000B5FCBDE808403A20FDF7A2BC3038024069
:104360000D4808B5016841F080010160016801F065
:1043700080010091016841F001010160016801F0D4
:1043800001010091016841F002010160006800F044
:104390000200009008BD0000303802400D4810B502
:1043A0000B4901600C49416000214FF4804281605B
:1043B000C0E9031241618161C1610162FDF71AF830
:1043C000002803D0BDE81040FCF7B5BB10BD0000CD
:1043D0000054004064000020801A0600094810B50F
:1043E000074901600021416040F6FF718160FDF7DF
:1043F000C7FB002803D0BDE81040FCF79CBB10BDF4
:1044000000300040180100201FB500211048009125
:10441000019102910D4A0391026042F2CF02C0E97C
:104420000121F922C0E903218161FDF779FF08B17B
:10443000FCF781FB4FF48050009069460448FEF77A
:1044400007F8002801D0FCF776FB1FBD00180040DC
:10445000B401002010B58AB0002407941C216846DE
:104460000894FBF778FF22484FF080410160532108
:10447000C0E9011444F61F61C0E903148461FEF72A
:10448000BCF908B1FCF757FB079407A91848089432
:10449000FDF7FEFE08B1FCF74EFB6020CDE90004FD
:1044A00002940022694612480494FEF740F908B1CC
:1044B000FCF741FB042269460D48FEF738F908B1C4
:1044C000FCF739FB082269460948FEF730F908B1C4
:1044D000FCF731FB0C2269460548FEF728F908B1C4
:1044E000FCF729FB0248FEF7BBF80AB010BD00003C
:1044F0002401002010B58EB000240794089409947C
:104500000A940B941C2168460C94FBF724FF2A485C
:10451000284901605321C0E9011444F61F61C0E934
:1045200003148461FDF7FCFE08B1FCF704FB4FF4B3
:104530008050079007A92048FDF78AFF08B1FCF7D3
:10454000FAFA1D48FEF759F908B1FCF7F4FA0B9492
:104550000BA919480C94FDF79BFE08B1FCF7EBFA88
:104560006020CDE9000402940022694612480494B8
:10457000FEF7DDF808B1FCF7DEFA042269460E48C2
:10458000FEF7D5F808B1FCF7D6FA082269460A48C2
:10459000FEF7CDF808B1FCF7CEFA0C2269460648C2
:1045A000FEF7C5F808B1FCF7C6FA0348FEF758F85D
:1045B0000EB010BD000400406C0100200C4810B586
:1045C0000A4901604FF4E1214160002181600C2221
:1045D000C160C0E904128161C161FEF7A7FB002838
:1045E00003D0BDE81040FCF7A6BA10BD0010014092
:1045F000FC0100200C4810B50A4901604FF4165127
:104600004160002181600C22C160C0E90412816117
:10461000C161FEF78BFB002803D0BDE81040FCF71A
:104620008ABA10BD0044004044020020FEE7FEE7C5
:1046300000B5002851D030EE600A80ED030AD0EDBD
:10464000040A70EE600AC0ED050AD0ED060A70EEAD
:10465000800AC0ED060A00F064FFD0ED070AB4EE50
:10466000E00AF1EE10FA02DD9FED1C0A01E0B7EE60
:10467000000A80ED080AD0ED090A90ED060A00F064
:1046800058FF80ED060AD0ED000A90ED031A20EEE7
:10469000811A80ED0A1AD0ED010A20EE800AD0EDD1
:1046A000080A60EE200AC0ED0B0A90ED020AD0ED78
:1046B000051A71EE200A20EE210A80ED0C0A30EE78
:1046C000800A80ED0D0AD0ED0E0A00F032FF80ED79
:1046D0000D0A90ED030A80ED040A00BD0000000001
:1046E000002828D0F4EEC21AF1EE10FA23D380ECA1
:1046F000030AF2EE040A9FED100A80ED030A80ED32
:10470000040A80ED050A80ED060AC0ED070AF7EEFF
:10471000000AC0ED080ADFED090AC0ED090A80EDC4
:104720000A0A80ED0B0A80ED0C0A80ED0D0AC0ED3F
:104730000E1A80ED0F2A7047000000000000C842EA
:104740007047000010B58B7A4F4A23B1012B05D07A
:10475000022B7CD006E09FED4D0A01E09FED4C0A54
:1047600082ED000A4B798C791B1B00EE103ACB7955
:104770000C7AF8EEC01A1B1B00EE103ACB780C79BD
:10478000F8EEC03A1B1B00EE103A8B784978F8EE31
:10479000C02A591A00EE101AB8EEC01AB8EE040A70
:1047A00021EE800AF0EE400A9FED3A2A9FED3A4A48
:1047B0009FED3A3A03EE820A92ED005ADFED385A45
:1047C00043EEA50AF0EE404A42EE844AB0EE606A3B
:1047D00042EE840A41EE034A24EE855AF0EE044A82
:1047E00061EEA41A80ED005AF0EE614A43EEA51A7C
:1047F00043EE824A92ED002AF0EE603A41EE030A5F
:1048000042EE844A9FED284A60EE820A41EE043A65
:1048100041EE034A63EE823A64EE824AC0ED014AF9
:10482000DFED204A02EEA46A42EEA41A02EEA40AC8
:1048300001EE036A41EE031A26EE026A61EE821A65
:1048400080ED026AC0ED050AF0EE400A00E018E0D3
:1048500041EE040A01EE030AB1EE451A80ED001A9A
:10486000B1EE611A80ED031A60EEC20A20EE420A30
:10487000B1EE631A80ED041AC0ED060A80ED070A56
:1048800010BD9FED0A0A6BE718000020C5C4C43EA6
:10489000531FEC3E52B89EBF8FC2D5BFAE47E1BF9B
:1048A00052B89E3F8FC2D53FAE47E13F9493933FAE
:1048B00070B50B4C218909B9A5280FD1094A50546C
:1048C000491C88B220810B2808D3002525810126A8
:1048D0002671104600F05AF8E560667170BD000060
:1048E0001C0000202A07002010B5232801D8002032
:1048F00010BD01F03EF99FED051B53EC112B01F0AB
:104900004BF901F009F9C0B210BD0000B537F8C28B
:1049100064AAEE3F10B5232801D8002010BDA0F1F5
:10492000240172290CD201F024F99FED101B53ECE5
:10493000112B01F031F941EC100B9FED0E1B0BE038
:1049400001F017F99FED0D1B53EC112B01F024F929
:1049500041EC100B9FED0B1B51EC100B53EC112B8A
:1049600001F018FA01F0D8F8C0B210BDC3F5285C08
:104970008FC2E13F00000080C0CA0A400E2DB29DE8
:10498000EFA7FA3F00000080EB41654070B53E495B
:1049900005460120A1F10F04225C0A54401C0F2897
:1049A000FADB687800267F2809D9A670687800F0BD
:1049B000B5F8FFF799FF607068787F2806D86670B1
:1049C000687800F0ABF8FFF78FFFA070A8787F2819
:1049D00009D92671A87800F0A1F8FFF785FFE070EB
:1049E000A8787F2806D8E670A87800F097F8FFF737
:1049F0007BFF2071E8787F2809D9A671E87800F05C
:104A00008DF8FFF771FF6071E8787F2806D8C0B293
:104A100000F084F8FFF768FFA071667128797F289D
:104A200009D92672287900F079F8FFF773FFE07151
:104A300028797F2806D8E671287900F06FF8FFF70B
:104A400069FF207268796072A879A0720F4AE879CC
:104A5000E072507828B900F04DF81070012800D1AC
:104A6000507000F021F8012801D1A07B907100F076
:104A700029F8012801D1A07BD07100F02FF89070A7
:104A800000F006F8D07070BD1B0700201C0000204D
:104A90000448417A807A0844052801D801207047EB
:104AA000002070470C0700200548407B012803D1F7
:104AB00003480F30407B08B1002070470120704749
:104AC0000C0700200448407B20B903480F30407B8E
:104AD000012800D0002070470C0700200448C1794D
:104AE000007A0844052801D801207047002070474B
:104AF0000C0700200848C179007A0844052808D826
:104B000005480F30C179007A0844052801D90120F1
:104B100070470020704700000C0700209FED120A2C
:104B20007F280BD00DD9A0F17F0000EE900A9FEDF9
:104B30000F1AF8EEE00A60EE810A0CE04FF0000078
:104B40007047C0F17F0000EE900ADFED091AB8EE61
:104B5000E01AC1EE210A20EE800ABCEEC00A10EE77
:104B6000100AC0B27047000000007F430000003C04
:104B70000000FE427047FDF739B8000030B593B031
:104B800030216846FBF7E7FB14210CA8FBF7E3FB99
:104B90001E480024016841F080510160006800F067
:104BA000805011901A48016841F48041016000680A
:104BB000102100F4804011900A2000900120CDE9DE
:104BC00003010225CDE905050820CDE90740A8200D
:104BD000CDE9090504200B906846FDF78DF908B171
:104BE00072B6FEE70F20CDE90C054FF4A050CDE9D9
:104BF0000E404FF48050109005210CA8FDF790F85E
:104C0000002801D072B6FEE713B030BD4038024034
:104C1000007000400248016841F470010160704773
:104C200088ED00E00148FDF782BC0000B4010020DF
:104C3000F0B50268274B284D284E294F294C4FF0DC
:104C4000804C984209D0604507D0A84205D0B042B8
:104C500003D0B84201D0A04204D122F0700E4A68BD
:104C600042EA0E0298421BD0604519D0A84217D0E4
:104C7000B04215D0B84213D0A04211D01A4DA8426C
:104C80000ED01A4DA8420BD0194DA84208D0194D8C
:104C9000A84205D0184DA84202D0184DA84203D111
:104CA00022F44075CA682A434D6922F080022A43E3
:104CB0008D68C5620D688562984201D0A04201D11D
:104CC00009690163016841F004010160012141614A
:104CD0000260F0BD000001400004004000080040F8
:104CE000000C00400004014000400140004401402D
:104CF0000048014000180040001C00400020004017
:104D000010B501F01F030121046A99408C4304622D
:104D1000016A9A401143016210BD10B5846842EAED
:104D2000032224F47F440A432243826010BD826838
:104D300022F070020A4342F00701816070470000D0
:104D4000F0B5036A026A22F00102026242688469D5
:104D5000124E24F073050C682C4323F002058B6877
:104D60002B430D4DA84201D0B04205D123F00807D6
:104D7000CB683B4323F00403A84201D0B04205D1E5
:104D80004D6922F4407215438A692A434260846166
:104D9000496841630362F0BD000001400004014026
:104DA000F0B5026A036A23F0100303624368846962
:104DB0000D6824F4E64444EA05248D6822F02002BC
:104DC00042EA05120F4D104EA84201D0B04206D162
:104DD000CF6822F0800242EA071222F04002A84285
:104DE00001D0B04207D14D6923F4406343EA850303
:104DF0008D6943EA85034360846149688163026287
:104E0000F0BD00000000014000040140F0B5026A5E
:104E1000036A23F4807303624368C46922F4007256
:104E200024F073050C68124E2C438D6842EA05226B
:104E30000E4DA84201D0B04206D1CF6822F40062E4
:104E400042EA072222F48062A84201D0B04207D190
:104E50004D6923F4405343EA05138D6943EA051372
:104E60004360C4614968C1630262F0BD0000014053
:104E70000004014030B5046A026A22F480520262E2
:104E80004268C3690D6823F4E64343EA05238D684D
:104E900024F4005444EA0534084DA84202D0084DD9
:104EA000A84204D14D6922F4804242EA8512426050
:104EB000C36149680164046230BD00000000014024
:104EC0000004014010B5036A046A24F0010404627E
:104ED000846924F0F00444EA021423F00A020A432D
:104EE0008461026210BD10B5036A046A24F01004E4
:104EF0000462846923F0A00324F4704444EA02327B
:104F000043EA01118261016210BD000070B52DED10
:104F1000028BF0EE408AFCF7EDF8314DE969411A59
:104F2000642959D32F4CE861AA20207055209FEDA9
:104F30002E8A60700A20A070F0EE480AB0EE680A6F
:104F400000F024FD02460321204600F01AFDF0EE99
:104F5000480A95ED060A00F019FD02460521204693
:104F600000F00FFD214DF0EE480A95ED000A00F02B
:104F70000DFD02460721204600F003FD95ED010AD4
:104F8000F0EE480A00F002FD02460921204600F03A
:104F9000F8FC95ED020AF0EE480A00F0F7FC024634
:104FA0000B21204600F0EDFC00210846225C401C4D
:104FB0001144C0B2C9B20D28F8D30D48617390F8FE
:104FC0004100202808D1BDEC028B0E22BDE87040C4
:104FD00004490748FDF7E6BFBDEC028B70BD000039
:104FE0002C000020880700200000C8426C0500202B
:104FF0004402002010B5806B0021C185FDF746FDFD
:1050000010BD70B5846B2068406994F84110C0F3FE
:10501000C0100025212904D118B1E584204600F0F4
:10502000B4F82068406994F84210C0F38010222937
:1050300004D118B1E585204600F080F8606C40F09E
:10504000100060642046FDF721FD70BD10B50146DB
:10505000806B096809684FF00002C9052ED4C2852B
:1050600001680C3151E8003F23F4807341E80034BB
:10507000002CF5D10168143151E8003F23F0010301
:1050800041E80034002CF5D10168143151E8003FAB
:1050900023F0400341E80034002CF5D1202180F8B2
:1050A0004210016B012909D101680C3151E8003F20
:1050B00023F0100341E80034002CF5D14263016B6A
:1050C000012902D0FDF71CFF10BD818DFDF762FCA8
:1050D00010BD10B5806B01214163016B012902D025
:1050E000FDF70FFF10BD818D4908FDF753FC10BD82
:1050F00010B50146806B09680968C90516D40021FE
:10510000C1840168143151E8002F22F0800241E887
:105110000023002BF5D101680C3151E8002F42F03B
:10512000400241E80023002BF5D110BDFDF77CFFC4
:1051300010BD10B5806BFDF778FF10BD01680C3114
:1051400051E8002F22F4907241E80023002BF5D1A2
:105150000168143151E8002F22F0010241E80023D8
:10516000002BF5D1016B012909D101680C3151E8FF
:10517000002F22F0100241E80023002BF5D120215E
:1051800080F8421000210163704701680C3151E83A
:10519000002F22F0C00241E80023002BF5D120218E
:1051A00080F84110704708B590F84210222901D0CC
:1051B000022008BD82684FF480539A4201D10169F0
:1051C00021B1816A9A421BD04AB10AE00268816A21
:1051D0005268C2F308020A80816A891C08E00269E9
:1051E00072B10268526802F07F020A70816A491C3B
:1051F0008162C18D491E0904090CC18503D01BE0E1
:1052000002685268F1E70168CA6822F02002CA60A9
:105210000168CA6822F48072CA6001684A6922F093
:1052200001024A61202180F8421000214163026B93
:10523000012A03D0FDF764FE002008BD0163016868
:105240000C3151E8002F22F0100241E80023002B1E
:10525000F5D101680A68D20602D50A68496800914A
:10526000818DFDF797FBE7E770B50446006801699B
:10527000E26821F44051114301612169A068E269AB
:1052800008436169114308432168CA6849F20C6305
:105290009A430243CA6020684169A26921F44071BF
:1052A0001143416131492068884202D03049884227
:1052B00002D1FCF7DFFD01E0FCF7CCFDE269002341
:1052C000192164253226B2F5004F626828D0A0FB70
:1052D0000101930F9200FAF7C7FF0146B0FBF5F00A
:1052E0006FF01802504301EB800006EB0010B0FB9A
:1052F000F5F000F0F002B1FBF5F002EB0012B1FBAB
:10530000F5F06FF01803584301EB800006EB001036
:10531000B0FBF5F000F00F0021681044886070BD0C
:10532000A0FB010192185B41FAF79EFF0146B0FB1A
:10533000F5F00201B1FBF5F06FF01803584301EBF3
:10534000800006EBC000B0FBF5F000F0F80002EBC7
:105350004002B1FBF5F0584301EB800006EBC000C2
:10536000B0FBF5F000F00700D6E7000000100140A8
:105370000014014038B5816204468285002013463E
:105380006064222284F84220E56B1F4AEA63E56BE1
:105390001E4A2A64E56B1E4AEA64E26B10650A46FF
:1053A0002168E06B091DFBF763FD30B110206064DC
:1053B000202084F84200012038BD20680168406840
:1053C0000090206948B120680C3050E8001F41F47B
:1053D000807140E80012002AF5D12068143050E8AE
:1053E000001F41F0010140E80012002AF5D12068B9
:1053F000143050E8001F41F0400140E80012002A3C
:10540000F5D1002038BD00004D500008D3500008F1
:10541000035000082DE9F843984617460D46044608
:10542000089E24E0701C22D0FBF764FEA0EB08006D
:10543000B0421AD8CEB12068C168490717D5802D6F
:1054400015D0402D13D00168C94309070FD4016856
:105450000025406800902046FFF770FE0820606439
:1054600084F840500120BDE8F8830320FBE7206862
:10547000006835EA000004D00020B842D2D00020F5
:10548000F1E70120F9E700000148FDF70FBB00003C
:10549000FC01002010B50948FDF7C0FA8022084938
:1054A0000648FDF752FA002806D10448C06B006890
:1054B000016821F00801016010BD0000FC0100201E
:1054C000AC0300200148FDF7F1BA000044020020BF
:1054D00010B50948FDF7A2FA402208490648FDF731
:1054E00034FA002806D10448C06B0068016821F036
:1054F0000801016010BD0000440200202C040020BF
:10550000FEE70907090E002804DB00F1E02080F81F
:105510000014704700F00F0000F1E02080F8141D27
:105520007047B5EEC00AF1EE10FA01DCB1EE400AA8
:105530007047B1EE601AB4EEC10AF1EE10FA02D271
:10554000B0EE410A7047B4EEE00AF1EE10FAF9DD70
:10555000B0EE600A7047884201D308467047904217
:10556000FCD810467047000010B564230922094991
:105570000948FDF7C7FC3220FBF7B2FC054964235C
:10558000082208390448FDF7BDFCBDE81040322070
:10559000FBF7A6BC9A5F0008FC01002070B5254C03
:1055A00025490122A6784EB10025012E0CD04FF4DA
:1055B0008773022E16D0032E36D128E0592836D113
:1055C0000870A280A27032E0532802D0592806D079
:1055D0001AE0A2888854521CA280022012E00870AF
:1055E000A28024E0A2889A420ED28854521C90B223
:1055F000A08005281BD10879C11DE180B0F5847F0A
:1056000002D20320A07012E0A570A5800FE0A2884E
:105610009A42F9D28854521C91B2A180E08881420A
:1056200005D3054800F00AF8A570A580E5806078EC
:1056300070BD000010000020DC0500202DE9F04FB7
:1056400000282DED028B93B07ED007297CD3027801
:10565000592A79D14278532A76D10779FA1D914295
:1056600072D1B2F5877F6FD80024851C2146FB1CC0
:1056700000940DE09DF8006015F801C0491C6644D7
:105680008DF800609DF801C089B266448DF8016014
:105690009942EFD30244BDF8001012F8025CCBB27D
:1056A000AB4251D112F8012C090A91424CD1002190
:1056B00009940B9400F105080A94A346A2462646D5
:1056C00025468946109108469FED898A08940E91D7
:1056D0008EE000BF08EB000318F80020597808445A
:1056E000801C1190B8422FD89B1C0093102A04D024
:1056F000202A2CD0402A52D078E00C2976D11846A6
:1057000000F000F900EE100AB8EEC00A20EE080A18
:105710008DED090A0098001D00F0F4F800EE100A63
:10572000B8EEC00A20EE080A8DED0A0A009808308B
:1057300000F0E8F800EE100A0120B8EEC00A20EEF2
:10574000080A8DED0B0A00E0CDE010904EE00C2928
:105750004CD1184600F0D6F800EE100A0098B8EECA
:10576000C00A001D20EE080A10EE10BA00F0CAF8B8
:1057700000EE100A0098B8EEC00A083020EE080AC1
:1057800010EE10AA00F0BEF800EE100A4FF001096A
:10579000B8EEC00A20EE080A8DED080A26E00C29B2
:1057A00024D1184600F0AEF800EE100A0098B8EECA
:1057B000C00A001D20EE080A10EE104A00F0A2F800
:1057C00000EE100A0098B8EEC00A083020EE080A71
:1057D00010EE106A00F096F800EE100A01200E900C
:1057E000B8EEC00A20EE080A10EE105A119880B2E6
:1057F000811CB9427FF66EAF1098002873D0B9F1C2
:10580000000F70D00E9800286DD0DFF8E8903A4F66
:1058100099F80000D0B93948DFF8E0804662C0E965
:105820000A45012008F1240889F8000098ED000AD3
:1058300087ED070A98ED010A00F06AF887ED060A7D
:1058400098ED020A00F064F887ED080ADFF8AC80F2
:1058500000EE104AC8F8006000F05AF888ED010A1E
:1058600000EE105A00F054F888ED020A4046089BFA
:10587000C0F80CB0C0E904A30DF1240C18309CE86A
:105880000E0080E80E001E4881784078814203D0E7
:1058900000F03EF887ED080A98ED000A012187ED37
:1058A000010A98ED010A87ED000A98ED020A87EDDA
:1058B000020A98ED030A87ED040A98ED040A87EDC1
:1058C000030A98ED050A87ED050A98ED060A87EDAB
:1058D0000D0A98ED070A87ED0E0A98ED080A87ED84
:1058E0000F0A89F8011013B0BDEC028BBDE8F08FF0
:1058F000BD378635100000206C050020AC05002067
:105900000C070020C178006861F31F607047000039
:10591000DFED090A094901E030EE600A10EE100AD5
:105920008842F9DC064900BF10EE100A884202D313
:1059300030EE200AF8E770470000B443000034431B
:10594000000034C3FCF75AF9FFF718F9FEF708FD19
:10595000FEF7D0FCFEF742FDFEF77CFDFEF7CAFD28
:10596000FEF72CFEFEF746FEFEF718FDFEF74CFD97
:10597000FFF790FDFFF7ACFDFAF752FDFAF7F0FDE7
:10598000FCE742540844120A4270704720EE200A95
:105990000A4910EE100A884202DD9FED090A06E06E
:1059A00010EE100AB0F1474F01D99FED060ABDEE87
:1059B000C00A10EE100A00B27047000000FEFF4659
:1059C00000FEFF46000000C710B591EA030F48BF74
:1059D00083F0004300F1E681841A71EB030C05D2D9
:1059E000121943EB0C03001B61EB0C01DFF824E1FF
:1059F0004FEA1154A4EB135C1EEA430F18BF9EEA52
:105A0000445F73D023EA0E03DCF1200E21EA045137
:105A100043F4801332D322FA0CFE10EB0E0023FA6B
:105A20000CFE41EB0E01CCF1200E03FA0EFE10EB42
:105A30000E0051F10001B1F5801FCCF1200E32D2E1
:105A400001EB045112FA0EF2BDE8104058BF704746
:105A5000401C38BF5FEA420218BF7047002814BFDD
:105A600020F0010041F100014FEA410313F5001F4E
:105A700038BF7047A1F1C04100F086B9012A43EB5D
:105A80000302ACF1200CDCF11F0E32BF4FF0000E10
:105A900023FA0CF310EB030041EB0451B4EB115F5C
:105AA000D0D0A1EB045101F5801149085FEA300024
:105AB00001EB04510ED350F1000038BF12FA0EFE74
:105AC00008D1BDE81040C9E7401C38BF5FEA420278
:105AD000CAD1C3E7BDE810404FEA410313F5001FE8
